:020000040800F2
:10000000680800205D0200083335000897300008BA
:100010003135000899050008014B00080000000078
:10002000000000000000000000000000F13A00089D
:10003000A707000800000000BB370008F33A0008DB
:1000400077020008770200087702000877020008AC
:10005000770200087702000877020008770200089C
:10006000770200087702000877020008F906000806
:10007000770200087702000877020008770200087C
:10008000770200087702000855040008770200088C
:10009000770200087702000877020008770200085C
:1000A000770200087702000877020008770200084C
:1000B000770200087702000877020008770200083C
:1000C000770200087702000877020008770200082C
:1000D000770200087702000877020008F54A000856
:1000E000770200087702000877020008770200080C
:1000F000770200087702000877020008000000007D
:1001000077020008770200087702000877020008EB
:1001100077020008770200087702000877020008DB
:1001200077020008770200087702000877020008CB
:1001300077020008770200087702000877020008BB
:1001400077020008770200087702000877020008AB
:10015000770200087702000877020008770200089B
:10016000770200087702000877020008770200088B
:1001700077020008770200087702000800000000FC
:10018000770200087702000877020008770200086B
:10019000770200087702000800000000000000005D
:1001A000000000000000000077020008770200084D
:1001B00077020008770200087702000800F002F8D2
:1001C00000F03CF80AA090E8000C82448344AAF1B5
:1001D0000107DA4501D100F031F8AFF2090EBAE8B3
:1001E0000F0013F0010F18BFFB1A43F0010318476B
:1001F000305B0000505B0000103A24BF78C878C123
:10020000FAD8520724BF30C830C144BF04680C601C
:10021000704700000023002400250026103A28BF64
:1002200078C1FBD8520728BF30C148BF0B60704768
:100230001FB505F02BF91FBD10B510BD00F0CFF8AC
:100240001146FFF7F5FF04F0C7FC00F0EDF803B42A
:10025000FFF7F2FF03BC00F0F5F800000948804703
:1002600009480047FEE7FEE7FEE7FEE7FEE7FEE798
:10027000FEE7FEE7FEE7FEE704480549054A064BB0
:1002800070470000693B0008BD01000868020020BB
:1002900068080020680400206804002053EA020C6B
:1002A00000F069802DE9F04B4FF00006002B1FBFD6
:1002B000B3FA83F503FA05F424FA05F65E4012BF9B
:1002C0001643B2FA82F502FA05F4C5F120051EBF05
:1002D00022FA05FC44EA0C04203556EA044C4FEAA5
:1002E000144418BF641C4FF000084FF000099042FE
:1002F00071EB030C39D3002919BFB1FA81F701FA68
:1003000007F6B0FA80F700FA07F6C7F120071EBF1C
:1003100020FA07FC46EA0C062037B6FBF4FCA7EBF4
:100320000507103F07F01F0BCBF120060CFA0BFB63
:100330002CFA06F644BFB3460026202FA4BF5E4623
:100340004FF0000B5BEA060C08BF4FF0010B19EBF6
:100350000B09ABFB027C48EB0608C01B06FB02CC7A
:100360000BFB03CC71EB0C01C1E70B460246414687
:100370004846BDE8F08B13B54FF000004FF0000188
:10038000AFF30080BDE81C4070474FF0000200B59D
:10039000134694469646203922BFA0E80C50A0E8A8
:1003A0000C50B1F12001BFF4F7AF090728BFA0E856
:1003B0000C5048BF0CC05DF804EB890028BF40F822
:1003C000042B08BF704748BF20F8022B11F0804F64
:1003D00018BF00F8012B704770477047704775468B
:1003E00000F02CF8AE4605006946534620F00700A1
:1003F000854618B020B5FFF73FFFBDE820404FF01D
:1004000000064FF000074FF000084FF0000B21F0FE
:100410000701AC46ACE8C009ACE8C009ACE8C009CB
:10042000ACE8C0098D46704710B50446AFF30080B4
:100430002046BDE81040FFF70ABF000000487047A3
:100440000802002001491820ABBEFEE7260002008A
:1004500070470000014800F0F3BB000014000020CA
:1004600010B5846AA16D11F0500F06D0A16DC906B8
:1004700025D5204600F0E3FB10BDA06D40F40070D0
:10048000A06520680168090716D502F057FE78B10B
:100490002068C068800400280ADBA06D20F480700A
:1004A000A065A06DC00403D4A06D40F00100A0655C
:1004B000204600F0C2FB10BDC0688007EBE7216D4D
:1004C000496BBDE81040084710B5806A816D41F066
:1004D00040018165C16D41F00401C16500F0AFFBD1
:1004E00010BD10B5806A00F0A9FB10BDF8B5044638
:1004F000002000902068816811F0010F41D18168CF
:10050000214A11422ED18168D5432940491C81607E
:100510001E48806800F0E07000020DD51C481D499F
:100520000068B0FBF1F0401C00EB4000800000E0F0
:10053000401E00900028FBD101F0EEF806461BE0BB
:10054000816811F0010F03D181682940491C816045
:1005500001F0E2F8801B02280ED920680068C04331
:10056000C00709D0A06D40F01000A065E06D40F01C
:100570000100E0650120F8BD20680168C943C90792
:10058000DED10020F8BD00003F00008000030450D1
:1005900010000020400D0300FEE7000070B50024AD
:1005A00000F010F94FF48055134E04E0641CE4B2DF
:1005B000012000F0F9F82946304601F0A2F80128A0
:1005C00003D0642C10D2002407E0642CEED30BE09F
:1005D000641CE4B2012000F0E7F82946304601F03F
:1005E00090F818B1642C04D3012070BD642CEFD3B3
:1005F000FAE7002070BD00000004004870B5002438
:100600004FF48055134E04E0641CE4B2012000F066
:10061000CBF82946304601F074F8012801D1642C4A
:10062000F2D3002404E0641CE4B2012000F0BCF822
:100630002946304601F065F808B9642CF3D3282028
:1006400000F0B2F82946304601F05BF8012800D0EE
:10065000002070BD0004004870B50020044640062C
:10066000050EFFF7CBFF641C2843E4B2082CF6D339
:1006700070BD2DE9FC410D46064600F023F8FFF75A
:100680008DFF10B10120BDE8FC8100246F46FFF70B
:10069000E3FF3855641CE4B2052CF8D39DF8001034
:1006A0009DF801009DF803300A189DF802000344EC
:1006B0001A449DF804309A4201D13170287000200C
:1006C000E1E7000070B500F093F80A4D4FF40054D4
:1006D00000222146284601F019F8142000F0D4FE2B
:1006E00001222146284601F011F8BDE870401E2085
:1006F00000F05AB800040048014800F0C1BD0000F5
:100700007C0000200D4B416C026821F003019A42ED
:1007100001D20B4B01E00A4B1C3319448164D1B266
:1007200014220839B1FBF2F1054A8032C26401F0AB
:100730001F0201219140016570470000080402403A
:10074000000802400179074A02EB81024265054A2E
:100750004432491E826501F0030201219140C165C6
:1007600070470000FC08024030B5D0E913456560D1
:10077000446D14B1D0E91645656090F8444004F02A
:100780001C050124AC40056C6C60046863608368E0
:10079000102B036803D099600068C26030BD9A6076
:1007A0000068C16030BD704710B5044601F0DEFB43
:1007B0000349B0FBF1F16143491EFDD210BD0000B9
:1007C00000093D0000B585B014216846FFF7DDFD46
:1007D000002001904FF400500090012002906946E3
:1007E000024800F063FE05B000BD000000040048B0
:1007F00000B585B014216846FFF7C7FD4FF40050DF
:100800000090012001900290022003906946024866
:1008100000F04CFE05B000BD0004004872B6FEE7D3
:100820007047704770477047704700002DE9F84FD8
:1008300000270446009790F85400DFF8CC930D464B
:10084000B846012811D0012684F85460206802F0CF
:1008500071FC60B1A06D40F02000A0655FF0010761
:1008600084F85480384600F0E5B90220FBE7686858
:10087000052808D8022825D0032825D0042825D00B
:10088000052825D0062021680C2303EA901319447B
:100890002A680B6B00F01F004FF01F0C0CFA00FCD5
:1008A000C2F3846223EA0C03824013430B63206883
:1008B00002F040FC8246206802F038FC5AEA000050
:1008C00009D0AAE00C20DEE71220DCE71820DAE7E6
:1008D0004FF48070D7E7AA6829682068B2F1004F0A
:1008E00020D002F033FC2068416921F000414161D1
:1008F00020686969C268C2F3C102520091402A6946
:10090000042A17D000EB82002B68026EDFF8FCC2CD
:1009100003F0F84302EA0C020B431A4342F0004191
:1009200001667AE0002202F011FC2068416941F082
:100930000041DCE7002102F0F3FB400320684FF0A8
:10094000000172D002F0ECFB90FAA0F0B0FA80F156
:10095000286842036ED090FAA0F0B0FA80F081428D
:1009600004D100221146206802F0FFFB012120681B
:1009700002F0D6FB400320684FF001015DD002F089
:10098000CFFB90FAA0F0B0FA80F12868420359D06A
:1009900090FAA0F0B0FA80F0814204D10022012147
:1009A000206802F0E2FB0221206802F0B9FB40035C
:1009B00020684FF0020148D002F0B2FB90FAA0F09C
:1009C000B0FA80F12868420344D090FAA0F0B0FA5F
:1009D00080F0814204D100220221206802F0C5FB90
:1009E0000321206802F09CFB400320684FF00301C4
:1009F00033D002F095FB90FAA0F0B0FA80F12868AD
:100A000042032FD090FAA0F0B0FA80F0814204D1D6
:100A100000220321206802F0A8FB2068816811F001
:100A2000010F22D0AAE000E004E002F079FBC0F35D
:100A300084618DE7C0F3846091E702F071FBC0F33D
:100A40008461A2E7C0F38460A6E702F069FBC0F30B
:100A50008461B7E7C0F38460BBE702F061FBC0F3D9
:100A60008461CCE7C0F38460D0E72A7B296850F822
:100A7000B03FC1F3120C23EA0C0302F0180C644AD5
:100A800022FA0CF20A4013430360E968494575D124
:100A9000286841031AD090FAA0F1B1FA81F1491CFB
:100AA00001F01F0109294FEA403130D8002910D048
:100AB00090FAA0F1B1FA81F101F1010101F01F01F9
:100AC00006FA01F608D1C0F3846109E0C0F384613D
:100AD000E5E7C0F38461EFE790FAA0F1B1FA81F1A4
:100AE00001F1010101F01F0146EA816102D1C0F369
:100AF000846003E090FAA0F0B0FA80F000F1010009
:100B000000F01F0000EB400041EA005132E00029F4
:100B10000ED090FAA0F1B1FA81F100BF01F101010C
:100B200001F01F0106FA01F605D1C0F3846106E069
:100B3000C0F38461F2E790FAA0F1B1FA81F101F11A
:100B4000010101F01F0146EA816102D1C0F3846016
:100B500003E090FAA0F0B0FA80F000F1010000F09C
:100B60001F002C4A00EB400002EB005041EA00015C
:100B700041F00071AA68206802F0E8FA26482A6865
:100B800002423FF46DAE25488168254D254B01F0AA
:100B9000E071AA421BD10D0219D422689A427FF457
:100BA0005FAE826841F4000122F0E0720A43826085
:100BB0001D481E490068B0FBF1F0401C00EB4000EE
:100BC000800000E0401E00900028FBD148E6184D50
:100BD000AA4207D1CD0105D422689A42F6D141F04C
:100BE00080710AE06FF00045EA42EFD14A02EDD48D
:100BF00022689A42EAD141F48001826822F0E072D0
:100C00000A4382602CE6000000007F4000F0FF03F2
:100C1000FFFF0700000020FE0000088000030450D2
:100C2000000052C70000045010000020400D0300D7
:100C3000000084CB18BCBDE8E08F70477047704758
:100C40002DE9F0410446006806684568B0070ED5F6
:100C5000A8070CD5A06DC00603D4A06D40F40060B9
:100C6000A0652046FFF7DCFD2168022008607007C0
:100C700001D5680703D4300725D5280723D5A06DF3
:100C8000C00603D4A06D40F40070A065206802F097
:100C900055FA90B12068C16889040ED4016809072B
:100CA0000BD502F047FA00287DD0A06D40F010006F
:100CB000A065E06D40F00100E0652046FFF7BDFF54
:100CC00021680C200860B00601D5A80603D4700680
:100CD00031D568062FD5A06DC00603D4A06D40F4B1
:100CE0000050A0652068C16C11F0C00F7DD00027B6
:100CF00002F024FA21680246C868B7B1830102D520
:100D00009AB1820411D40A6852060ED580020CD41E
:100D1000084602F00BFA00287FD0A06D40F01000CA
:100D2000A065E06D40F00100E0652046FFF779FD29
:100D300021686020086030060BD5280609D5A06D13
:100D400040F48030A065204600F054F921688020EE
:100D50000860F0050CD5E8050AD5A06D40F4003018
:100D6000A0652046FFF75FFD21684FF480700860A2
:100D7000B0050CD5A8050AD5A06D40F48020A0656B
:100D80002046FFF751FD21684FF400700860F0061F
:100D900017D5E80615D5606B18B12068C068C00784
:100DA0000CD0A06D00E024E040F48060A065E06D10
:100DB00040F00200E0652046FFF741FF2168102067
:100DC000086070053BD5680539D5A06D40F48040BA
:100DD000A065E06D40F00800E06521684FF4806098
:100DE00008602046BDE8F04101E014E015E0FFF79F
:100DF00019BD2068416821F00C014160A06D20F40C
:100E00008070A065A06DC0043FF557AFA06D40F0A5
:100E10000100A06551E701276AE72068416821F0D9
:100E200060014160A06D20F48050A065A06DC005F8
:100E30003FF57BAFA06D40F00100A06575E7BDE810
:100E4000F0810000F8B54FF0000504002E46009533
:100E500002D0A06D10B107E00120F8BD204600F0DF
:100E6000CBF8E66584F8546020688168C1F340716E
:100E700019B18168574A1140816020688168C1F3C7
:100E8000007189B98168544A114041F080518160F4
:100E9000524853490068B0FBF1F04000801C00E06C
:100EA000401E00900028FBD120688168C1F30071CA
:100EB00041B9A16D41F01001A165E16D41F0010161
:100EC000E165012502F036F90646A06D00F010013B
:100ED000A06D314305D040F01000A06501252846E3
:100EE000F8BD20F4807040F00200A06520688068A2
:100EF00010F0010F0BD13B48806810F0010F06D1B4
:100F000039486168826822F47C120A438260E16891
:100F1000606B627E0843A16841EA4231084394F85D
:100F2000201040EA0140012904D1A18C2F4A02EB94
:100F300041410843A16A29B101F47071E26A014399
:100F400042EA01002268D168294B19400143D1606F
:100F5000206802F0EBF8064317D1207E94F8301099
:100F6000800340EA4100E16C22680843D16844F202
:100F7000060399430143D16094F8380001280CD04E
:100F80002068016921F001010161206901282068C0
:100F9000016B21F00F0111D013E0D4E90F010843D8
:100FA000D4E911121143084321680A6940F2FC7325
:100FB0009A43104340F001000861E6E7E269521EDF
:100FC00011430163A06D20F0020040F00100A06514
:100FD00085E70000C0FFFF5FC0FFFF7F100000201B
:100FE000400D030000000450000304500000FEFF09
:100FF00007C0F0FF70470000F0B5ADB00646142101
:1010000027A8FFF7C2F99C216846FFF7BEF93349CC
:101010003068884260D14FF4804000908003209077
:1010200001201024CDE902040190022004900590D3
:101030000690C0050790684600F07EFC08B1FFF7F7
:10104000EDFB2749C86C40F40050C864C86C00F43C
:1010500000502C90C86C40F00400C864C86C00F0CC
:1010600004002C90C86C40F00100C864C86C0025D6
:1010700000F001002C9009200B272995CDE92707C6
:1010800027A9184800F012FA2995CDE9274727A982
:101090004FF0904000F00AFA144C134820600520ED
:1010A000C4E901058020C4E903508000606180002C
:1010B000A0612020C4E90705204600F03FF908B1EF
:1010C000FFF7ACFB3465002211461220A66200F047
:1010D00087FB122000F076FB2DB0F0BD000004501D
:1010E0000010024000080048080002407C00002078
:1010F00070B5044615460E46006802F01BF8E0BBCA
:1011000094F85400012842D0012084F8540020466D
:10111000FFF7ECF9002110B184F8541070BDA06DF8
:1011200040F60162904340F48070A065A06DC00459
:1011300004D5E06D20F00600E06500E0E165226D79
:101140001448D062226D14481063226D1348506316
:1011500022681C20106084F854102068416841F017
:10116000100141602068C16841F00101C16021683F
:101170002B4632464031206D00E008E000F03EF999
:1011800021688A68064B1A40121D8A6070BD0220D1
:1011900070BD000061040008E3040008C9040008F1
:1011A000C0FFFF7F10B590F825100023022905D05D
:1011B0000421C16380F82430012010BD01680A6851
:1011C00022F00E020A60816C0A6822F480720A60C2
:1011D00001680A6822F001020A6090F84410046C69
:1011E00001F01C01012202FA01F16160D0E913143F
:1011F0004C60416D31B10C6824F480740C60D0E90E
:1012000016144C6080F8252080F82430184610BD54
:1012100010B590F825100024022903D00421C163E1
:1012200001242BE001680A6822F00E020A600168BE
:101230000A6822F001020A60816C0A6822F4807256
:101240000A6090F84410036C01F01C01012202FABC
:1012500001F15960D0E913134B60416D31B10B6856
:1012600023F480730B60D0E916134B6080F82520BF
:10127000002180F82410816B01B18847204610BD01
:10128000F0B4016C0C6801680D6890F8442002F01D
:101290001C06042202FA06F3234211D06B070FD575
:1012A0000B689B0603D40B6823F004030B6090F8D3
:1012B000441001F01C018A40016C4A60016B1DE082
:1012C000022303FA06F727424FF0000C4FF0010209
:1012D00018D0AF0716D50C68A40605D40C6824F006
:1012E0000A040C6080F8252090F8441001F01C01DD
:1012F0008B40016C4B6080F824C0C16A00291AD071
:10130000F0BC08470823B340234214D02B0712D562
:101310000B6823F00E030B6090F84410036C01F08F
:101320001C0102FA01F15960C26380F8252080F89F
:1013300024C0416BE2E7F0BC7047000070B50400C8
:101340000CD02B4A21681420914209D2294A0A4420
:10135000B2FBF0F08000606427480AE0012070BD15
:10136000234A52420A44B2FBF0F0800060642048F5
:1013700008382064022084F825000A6847F6F070D7
:101380008243D4E902031843D4E904352B431843BC
:10139000A3691843E3691843236A1843104308609C
:1013A0002046FFF7AFF9A0680025B0F5804F00D1C7
:1013B0006560A16C20790860D4E913014160606820
:1013C000401E032808D82046FFF7BCF9606D056071
:1013D000D4E91601416002E06565A565E565E56350
:1013E000012084F8250084F82450002070BD0000FE
:1013F00008040240F8FFFDBF0000024070B504463B
:1014000090F82400002501280CD0012084F8240045
:1014100094F825600020012E06D084F824000225CF
:10142000284670BD022070BD022684F82560E06366
:101430002068066826F0010606602046FFF794F94A
:10144000206B00282068016802D041F00E0106E000
:1014500021F0040101602068016841F00A01016087
:10146000A06C0168C90303D5016841F48071016073
:10147000606D18B1016841F48071016020680168F5
:1014800041F001010160CBE770B5044600F044F97A
:101490000546601C02D004480078044400F03CF982
:1014A000401BA042FAD370BD040000202DE9F04F8C
:1014B000DFF82092002301260325A9F1040B85B053
:1014C0000F2709F1040AABF1040EFBE006FA03FC56
:1014D00012EA0C027ED00C7904F00304012C01D036
:1014E000022C20D1846800945C0005FA04F804946E
:1014F000009C24EA08040094D1F80C80049C08FAAB
:1015000004F8009C48EA0408C0F80880446824EA0B
:101510000C0491F804C0CCF3001C0CFA03FC4CEA58
:10152000040CC0F804C00C79E443A4070ED0C468CE
:101530004FEA430805FA08FC24EA0C04D1F808C075
:101540000CFA08FC4CEA040CC0F80CC00C7904F04E
:101550000304022C15D1DC0800EB84040294246AF5
:101560004FEA437C4FEADC6807FA08FC24EA0C04E3
:10157000D1F810C00CFA08FC4CEA040C029CC4F828
:1015800020C004684FEA430805FA08FC24EA0C046A
:1015900091F804C00CF0030C0CFA08FC4CEA040CA3
:1015A000C0F800C04C6814F4403F13D04A4CD4F843
:1015B00060C04CF0010CC4F860C0246E23F0030C32
:1015C00004F001040094454C64440294A4684FEA7A
:1015D000837C00E075E04FEA1C7807FA08FC24EAF7
:1015E0000C04B0F1904F06D0DFF8F4C0604505D18F
:1015F0004FF0010C2EE04FF0000C2BE0DFF8E4C0C0
:10160000604502D14FF0020C24E0DFF8DCC06045F9
:1016100002D14FF0030C1DE0DFF8D0C0604502D1CD
:101620004FF0040C16E0DFF8C8C0604502D14FF05F
:10163000050C0FE0DFF8BCC0604502D14FF0060C8E
:1016400008E0DFF8B4C0604502D14FF0070C01E0BC
:101650004FF0080C0CFA08FC4CEA040C029CC4F88D
:1016600008C0D9F80040CC46D1F8048094435FEA22
:10167000C82800D51443CCF80040DAF80040D4461E
:10168000D1F8048094435FEA882800D51443CCF84D
:101690000040DBF80040DC46D1F8048094435FEA68
:1016A000883800D51443CCF80040DEF80040F446FA
:1016B000D1F8048094435FEAC83800D51443CCF8CD
:1016C00000405B1C0A6832FA03F47FF4FFAE05B0F9
:1016D00000F014B80804014000100240000001406E
:1016E0000004004800080048000C004800100048B2
:1016F0000014004800180048001C004830BCBDE839
:10170000C08F0069084000D0012070470AB1816194
:101710007047816270470000014880687047000090
:1017200004000020024881680278114481607047FB
:101730000400002010B50024032000F071F80F20F1
:1017400000F008F808B1012401E000F025F8204677
:1017500010BD000070B50E4E05460024307898B1DB
:101760004FF47A71B1FBF0F00A490968B1FBF0F06F
:1017700000F02CFF40B9102D06D200222946501E41
:1017800000F02EF8756000E00124204670BD0000D6
:101790000400002010000020094808B5016E41F047
:1017A00001010166016E01F001010091816D41F0BE
:1017B00080518165806D00F08050009008BD000070
:1017C00000100240002809DB00F01F0201219140B7
:1017D0004009800000F1E020C0F8001170470000CF
:1017E000F0B40E4B1B680C46C3F30223C3F107058C
:1017F000042D00D90425191D072901D2002300E07A
:10180000DB1E012606FA05F1491E214099409E4043
:10181000761E16403143F0BC03F0CEB90CED00E06B
:10182000064900F0070208684FF6FF03184040EA37
:101830000220034A10430860704700000CED00E0EE
:101840000000FA052B492C4B0A6832214A432B49E8
:1018500040B1B0F5007F086829D020F4C06040F4A2
:1018600080602CE00868C0F34120022804D051F8C1
:10187000800F20F4807022E0D1F8800020F4807086
:10188000C1F88000086820F4C06040F4007008606F
:10189000B2FBF3F0401C00E0401E4A69520501D53E
:1018A0000028F9D1486940050AD503207047C0F3E4
:1018B0004120022806D051F8800F40F48070086063
:1018C00000207047D1F8800040F48070C1F880009B
:1018D000086820F4C06040F400700860B2FBF3F0C8
:1018E000401C00E0401E4A695205DBD50028F9D1B2
:1018F000D8E700001000002040420F0000700040B8
:101900000248416841F40071416070470070004036
:1019100008480168C1F34121022906D0D0F88000AF
:10192000C00505D54FF4007070474FF480607047D4
:1019300000207047007000402DE9F84F0446002653
:101940000088FB4D3746010504F1200B1ED5E06EE3
:1019500040280AD003DC68B1202804D10FE06028B9
:1019600021D080281FD001260FE0E86840F48030A5
:10197000E86018E00021201D01F020FF03E00021B5
:10198000584601F0AFFF06000DD037462088C0044E
:101990002BD5206FB0F5007F16D00DDCC8B1B0F5A7
:1019A000807F0FD11AE0D5F89C00E16E20F0E000B6
:1019B0000843C5F89C00E9E7B0F5407F13D0B0F5C7
:1019C000806F10D001260FE0E86840F48030E860B6
:1019D00009E00021201D01F0F1FE03E0002158463E
:1019E00001F080FF0646F6B137462068800360D5D7
:1019F000A86D4FF00008C00009D4A86D40F08050D9
:101A0000A865A86D4FF0010800F080500090DFF845
:101A100024A3DAF8001041F48071CAF80010FFF72F
:101A20007BFE81460EE0D5F89C00216F20F4E0603B
:101A30000843C5F89C00D8E7FFF76EFEA0EB09004D
:101A400002282DD8DAF80000C005F5D54EBBD5F830
:101A5000900010F4407015D0D4F89810814211D045
:101A6000D5F89000D5F8901020F4407041F4803102
:101A7000C5F89010D5F8901021F48031C5F8901079
:101A8000C5F89000C0077DD0FFF746FE814641F2C1
:101A9000883AACE0FFF740FEA0EB0901514572D94E
:101AA00003263746B8F1000F03D0A86D20F0805010
:101AB000A8652078C00707D0D5F88800E16B20F032
:101AC00003000843C5F888002078800707D5D5F8BB
:101AD0008800216C20F00C000843C5F888002078AD
:101AE000400707D5D5F88800616C20F03000084326
:101AF000C5F888002078000707D5D5F88800A16CC4
:101B000020F0C0000843C5F888002078C00607D53B
:101B1000D5F88800E16C20F440700843C5F88800CF
:101B20002078800607D5D5F88800216D20F4406024
:101B30000843C5F888002088800507D5D5F88800B7
:101B4000616E20F440200843C5F8880020884005D5
:101B500007D5D5F88800A16E20F440100843C5F8D9
:101B600088002078400607D5D5F88800616D20F4FC
:101B700040500843C5F88800207800060AD5D5F8FB
:101B8000880001E038E032E0A16D20F440400843D5
:101B9000C5F888002088C00507D5D5F88800E16D14
:101BA00020F440300843C5F888002068C00207D5FB
:101BB000D5F89C00216E20F003000843C5F89C0076
:101BC00020884FF0006880044FF0806927D5D5F851
:101BD0008800616F20F040600843C5F88800606F9E
:101BE000404513D1E86840F48010E86017E0D5F86C
:101BF000900080077FF54EAFD5F89000D4F898108C
:101C000020F440700843C5F890004BE7484506D1E2
:101C10000121201D01F0D2FD060000D007462068FA
:101C200000032ED5A06F4FF480418842D5F89C0068
:101C300004D140F48040C5F89C000BE020F48040C3
:101C4000C5F89C00D5F88800A26F20F040601043D2
:101C5000C5F88800A06F404503D1E86840F48010C3
:101C600004E0884204D1E86840F48030E86008E08D
:101C7000484506D10121201D01F0A0FD060000D03D
:101C800007462068400318D5D5F88800E16F20F09A
:101C900040600843C5F88800E06F404504D1E8681B
:101CA00040F48010E86008E0484506D10121201D7D
:101CB00001F084FD060000D007462088400414D5BA
:101CC000D5F88800D4F8801020F040500843C5F8BB
:101CD0008800D4F88000B0F1805F06D10221201D79
:101CE00001F06CFD060000D007462068C00308D54F
:101CF000D5F89C00D4F8841020F004000843C5F8FF
:101D00009C002068800208D5D5F89C00D4F8881083
:101D100020F018000843C5F89C002068400227D531
:101D2000286820F080502860FFF7F6FC80460BE022
:101D30000010024000700040FFF7EEFCA0EB08002E
:101D4000022801D9032612E028688000F4D476B96D
:101D5000D5F89C00D4F88C1020F440300843C5F826
:101D60009C000221584601F0BDFD060000D0374618
:101D70002068000213D5D5F89C00D4F8901020F408
:101D800080500843C5F89C00D4F89000B0F5805FFF
:101D900005D10121584601F0A5FD00B10746206894
:101DA000C00110D5D5F89C0054F8941F20F44010C1
:101DB0000843C5F89C002068B0F5001F03D1E8680F
:101DC00040F48010E860384600F000B818BCBDE868
:101DD000E08F00002DE9F0470E4605004FF00007A8
:101DE0007ED0DFF87081D8F8000000F00F00B0421C
:101DF0000CD2D8F8001021F00F013143C8F80010C0
:101E0000D8F8000000F00F00B0427CD12878524C86
:101E100080070AD5A868A16801F0F001884204D9BA
:101E2000A16821F0F0010143A1602878C00749D0E2
:101E30006868DFF82891032810D0022814D0002801
:101E4000206814D0400500285DDA00F0B9F8484554
:101E500016D9A06810F0F00F0BD011E020688001B7
:101E600051D501F0D3FDF2E720688003EBE780074E
:101E7000E9E7A06820F0F00040F08000A060802733
:101E8000A068696820F003000843A060FFF744FCE5
:101E9000814641F2883A08E0FFF73EFCA0EB0901D9
:101EA000514502D90320BDE8F087A068696800F0B9
:101EB0000C00B0EB810FEFD1802F03D1A06820F090
:101EC000F000A060287880070CD5A868A16801F010
:101ED000F001884206D2A16821F0F001014300E040
:101EE00011E0A160D8F80010404601F00F01B142A6
:101EF0000BD9016821F00F0131430160006800F047
:101F00000F00B04201D00120CDE72878400705D569
:101F1000A068E96820F4E0600843A0602878000722
:101F200006D5A068296920F4605040EAC100A0608D
:101F300000F046F8A1680A4AC1F30311515C01F0B0
:101F40001F01C8400749086007480068BDE8F0471E
:101F5000FFF700BC002002400010024000B4C4049F
:101F6000D85C00081000002008000020014800682C
:101F70007047000010000020054806490068896885
:101F8000054AC1F30221515C01F01F01C8407047AE
:101F90001000002000100240185D000805480649A6
:101FA00000688968054AC1F3C221515C01F01F0134
:101FB000C84070471000002000100240185D000863
:101FC00070B52549002318468A68CC6812F00C02C7
:101FD00004F00306214C4FEA640509D00C2A05D011
:101FE000042A32D0082A00D1284670BD012E10D113
:101FF0000B681B0704D4D1F89430C3F3032302E029
:102000000B68C3F30313164E56F82330DAB10C2ACB
:10201000EBD1C86800F00300022818D0032818D0BC
:102020001846CA68CB68C2F30312C3F306234343BE
:10203000521CB3FBF2F2C868C0F34160401C400080
:10204000B2FBF0F070BD184670BD204670BD204652
:10205000E7E72846E5E70000001002400024F4000E
:10206000E85C00082DE9F84304006FD0FA4DA86839
:1020700000F00C06E86800F003072078C00664D57D
:1020800076B10C2E01D1012F0AD0A0690028286852
:102090007AD040F001002860FFF73EFB80465DE00B
:1020A0002868800702D5A0690028DED0216A286848
:1020B000000703D5286800F0F00004E0D5F894008C
:1020C000F02202EA1010814216D9084601F0D6FC2F
:1020D00000283BD1286840F0080028602868216A61
:1020E00020F0F000084328606868E16920F47F4030
:1020F00040EA0120686016E0286840F00800286087
:102100002868216A20F0F000084328606868E169C7
:1021100020F47F4040EA0120686026B9206A01F07F
:10212000ADFC0028D5D1FFF74BFFA968CB4AC1F31E
:102130000311515C01F01F01C840C9490860C9483A
:102140000068FFF707FB00287ED12EE0CAE000BF41
:10215000FFF7E2FAA0EB0800022876D8286880078B
:10216000F6D5286840F0080028602868216A20F029
:10217000F000084328606868E16920F47F4040EA85
:102180000120686011E0FFE720F001002860FFF700
:10219000C3FA804606E000BFFFF7BEFAA0EB0800D6
:1021A0000228DAD828688007F6D42078C00740D003
:1021B000082E18D00C2E01D1032F14D06068B0F572
:1021C000803F17D0B0F5A02F286817D020F48030BA
:1021D0002860286820F4802028606068E0B1FFF75C
:1021E0009BFA804614E02868800322D560680028A6
:1021F00078D01EE0286840F48030EDE740F480207D
:102200002860F7E7FFF788FAA0EB08006428A4D855
:1022100028688003F6D50CE0FFF77EFA804605E0DB
:10222000FFF77AFAA0EB0800642896D828688003A4
:10223000F6D4207880073BD5042E11D00C2E01D186
:10224000022F0DD0E06801E0AEE1FFE00028286831
:102250001ED040F480702860FFF75EFA07460CE05D
:10226000286840050CD5E0680028C1D008E000BF10
:10227000FFF752FAC01B022893D828684005F7D50B
:102280006868217C20F0FE4040EA016068600FE051
:1022900020F480702860FFF73FFA074605E000BF92
:1022A000FFF73AFAC01B0228B1D828684005F7D4D6
:1022B0002078000729D560690028D5F8940012D04D
:1022C00040F00100C5F89400FFF726FA074604E045
:1022D000FFF722FAC01B022899D8D5F8940080078E
:1022E000F6D512E02BE120F00100C5F89400FFF7CD
:1022F00013FA074605E000BFFFF70EFAC01B0228DD
:1023000085D8D5F894008007F6D42078400766D5A4
:10231000A86D0027C00008D4A86D40F08050A865C3
:10232000A86D012700F0805000904F480168C90552
:1023300012D40168814641F480710160FFF7ECF925
:10234000804605E0FFF7E8F9A0EB080002287DD8F9
:10235000D9F80000C005F5D5A068012816D00528D9
:10236000D5F8900017D020F00100C5F89000D5F8FE
:10237000900020F0040000BFC5F89000A06841F272
:102380008839C0B1FFF7C8F980460FE0D5F8900052
:1023900040F00100F0E740F00400C5F89000F5E7D8
:1023A000FFF7BAF9A0EB080149454FD8D5F89000DE
:1023B0008007F5D50EE0FFF7AFF9804606E000BFD5
:1023C000FFF7AAF9A0EB080149453FD8D5F89000DE
:1023D0008007F5D41FB1A86D20F08050A865207843
:1023E000800628D5606A0028D5F8980012D040F001
:1023F0000100C5F89800FFF78FF9074605E000BF18
:10240000FFF78AF9C01B022820D8D5F8980080076A
:10241000F6D510E020F00100C5F89800FFF77CF930
:10242000074604E0FFF778F9C01B02280ED8D5F85C
:1024300098008007F6D4A06AF0B3022816D00C2EBC
:102440007DD0286820F08070286000E0ABE0FFF7C6
:1024500063F90446AAE0000000100240D85C0008BE
:10246000100000200800002000700040E868E26AC8
:1024700000F00301914228D1216B00F0F002090124
:102480001039914221D1626B00F4FE41B1EB022F71
:102490001BD194F8382000F07841B1EBC26F14D111
:1024A000A18F00F4C00249084905A1F5001191422D
:1024B0000BD194F8401000E06EE04908490600F0A6
:1024C000C060A1F1007181424FD00C2E77D02868F6
:1024D000400174D42868C00071D4286820F080704E
:1024E0002860FFF719F9064605E000BFFFF714F969
:1024F000801B022857D828688001F7D4F4E90B0123
:102500006FF00F0202EB01110843218A52044908BF
:1025100002EB4151A26841EA02210843217D4FF0BC
:102520007E42490802EB41610843217B40EAC160D9
:10253000E968244A11400843E860286800E03EE06A
:1025400040F080702860E86840F08070E860FFF735
:10255000E3F8044605E000BFFFF7DEF8001B0228A1
:1025600021D828688001F7D527E02868800124D485
:10257000286840F080702860E86840F08070E8606B
:10258000FFF7CAF8044604E0FFF7C6F8001B02286C
:1025900009D828688001F7D50FE000BFFFF7BCF825
:1025A000001B022802D90320BDE8F88328688001B7
:1025B000F4D4E86804490840E8600020F4E701200A
:1025C000F2E700000C809D01FCFFEEFE10B5401EFE
:1025D000B0F1807F01D3012010BD4FF0E024606195
:1025E0000F21601702F0E8FA0020A06107202061A7
:1025F000002010BDF0B590F83C20012A39D001240C
:1026000080F83C40022280F83D20026853689568BB
:10261000194E1A4FB24201D0BA4204D123F4700CC1
:102620004B6843EA0C0323F0700C0B6843EA0C037D
:1026300053600268B24210D0B2F1804F0DD0104BFF
:102640009A420AD00F4B9A4207D00F4B9A4204D0BD
:10265000BA4202D00D4B9A4204D1896825F080031A
:102660001943916080F83D40002180F83C100846F5
:10267000F0BD0220F0BD0000002C014000340140FC
:102680000004004000080040000C004000400140F1
:1026900010B5040003D094F83D0010B107E001200C
:1026A00010BD002084F83C00204600F023F80220F2
:1026B00084F83D00211D206801F05EFA012084F8B5
:1026C000480084F83E0084F83F0084F8400084F815
:1026D000410084F8420084F8430084F8440084F800
:1026E000450084F8460084F8470084F83D00002047
:1026F00010BD000008B501680B48B1F1804F0BD048
:102700000A4A914207D1816D41F002018165806DD5
:1027100000F00200009008BD816D41F0010181656B
:10272000806D00F00100F5E7001002400004004059
:1027300070B5044690F83C000025012817D001260A
:1027400084F83C60022084F83D00226890682F4B9A
:10275000184020F47F4090600868502838D00DDC85
:1027600020284FD005DC90B3102811D14AE0022078
:1027700070BD302846D040280AD13BE060282FD0D9
:1027800070280DD0B0F5805F03D0B0F5005F12D097
:10279000012584F83D60002084F83C00284670BD87
:1027A000CB68D1E90121206801F053FA20688168E3
:1027B00041F0770109E0CB68D1E90121206801F0FF
:1027C00048FA2068816841F480418160E1E719E0BE
:1027D000CA684968206801F0D7FB5021206806E0EC
:1027E000CA684968206801F0E0FB6021206801F0B8
:1027F0003AFACEE7CA684968206801F0C5FB402173
:102800002068F4E7226801461046F0E788FFFEFFE3
:1028100030B587B0044614216846FDF7B6FD24683C
:102820000023164902224FF09040B4F1804F15D09A
:10283000134DAC4210D1CC6C44F00104CC64C96C93
:1028400001F00101059140218DE80E00CDE9033230
:10285000694600BFFEF72AFE07B030BDCC6C44F0DD
:102860000104CC64C96C01F00101059120218DE8BF
:102870000E000121CDE903316946EBE7001002406B
:102880000004004070B5044690F83C0000260D4658
:1028900001280BD0012084F83C000C2A4AD007DC28
:1028A00082B1042A20D0082A06D131E0022070BD6E
:1028B000102A53D0142A63D00126002084F83C004B
:1028C000304670BD206801F0D7F92068816941F079
:1028D000080181612068816921F00401816120681B
:1028E00081692A69114311E0206801F013FA206818
:1028F000816941F4006181612068816921F480610E
:102900008161206881692A6941EA02218161D4E7F5
:10291000206801F047FA2068C16941F00801C161EF
:102920002068C16921F00401C1612068C1692A6978
:10293000114311E0206801F07DFA2068C16941F47B
:102940000061C1612068C16921F48061C1612068B2
:10295000C1692A6941EA0221C161AEE7206801F03C
:10296000A3FA2068416D41F0080141652068416D7E
:1029700021F0040141652068416D2A69114311E08D
:10298000206801F0C9FA2068416D41F40061416599
:102990002068416D21F4806141652068416D2A699C
:1029A00041EA0221416588E710B5040003D094F89C
:1029B0003D0010B107E0012010BD002084F83C006C
:1029C000204600F022F8022084F83D00211D2068F6
:1029D00001F0D2F8012084F8480084F83E0084F821
:1029E0003F0084F8400084F8410084F8420084F8F5
:1029F000430084F8440084F8450084F8460084F8D5
:102A0000470084F83D00002010BD704730B50446F3
:102A1000022269B1042912D0082917D00C291CD030
:102A2000102921D094F84300012824D0012030BD82
:102A300094F83E000128F9D184F83E201DE094F876
:102A40003F000128F2D184F83F2016E094F84000BE
:102A50000128EBD184F840200FE094F841000128D0
:102A6000E4D184F8412008E094F842000128DDD147
:102A700084F8422001E084F843200122206801F01C
:102A8000DBF81A4A20681A4B1A49904209D098423A
:102A900007D0884205D0184DA84202D0174DA84251
:102AA00003D1456C45F400454564206890420FD041
:102AB000B0F1804F0CD0124A904209D0114A904296
:102AC00006D0114A904203D0984201D0884207D1E3
:102AD00081680E4A1140062906D0B1F5803F03D027
:102AE000016841F001010160002030BD002C01406F
:102AF00000340140004001400044014000480140D2
:102B00000004004000080040000C004007000100E5
:102B100090F88410012918D0012180F88410242114
:102B2000C0F8881001680A680B6823F001030B6085
:102B300022F0005100224266036819602021C0F88B
:102B4000881080F884201046704702207047704734
:102B5000704770B5044690F8840001281DD001200C
:102B600084F884002420C4F888002068056802687E
:102B700022F0010202602068826822F060620A434B
:102B80008260204601F024FA206805602020C4F805
:102B90008800002084F8840070BD022070BD70B5EC
:102BA000044690F8840001281DD0012084F8840098
:102BB0002420C4F8880020680568026822F0010219
:102BC00002602068826822F060420A4382602046E8
:102BD00001F0FEF9206805602020C4F8880000207C
:102BE00084F8840070BD022070BD70477047704744
:102BF0002DE9F04103680446D86919689A6840F6DF
:102C00000F0528424FF000054FF002060AD1870653
:102C10007ED501F0200702F0805C57EA0C0777D0E0
:102C2000616F3AE1B24FDFF8CCC2174001EA0C0CF9
:102C300057EA0C0C6CD05FEAC07C0CD05FEAC15C38
:102C400009D54FF0010CC3F820C0D4F8903043F000
:102C50000103C4F89030830709D5D30707D0236850
:102C60001E62D4F8903043F00403C4F89030430758
:102C70000AD5D30708D0266804233362D4F89030ED
:102C800043F00203C4F8903003070CD501F0200391
:102C90003B4308D0266808233362D4F8903043F0D1
:102CA0000803C4F8903003050BD54B0109D52668FD
:102CB0004FF400633362D4F8903043F02003C4F83B
:102CC0009030D4F89030002B3DD0800609D501F02B
:102CD000200002F08051084303D0616F09B1204603
:102CE0008847D4F8900021688968490602D410F01A
:102CF000280F2AD0204601F051FA2068806840064B
:102D00001ED52068083050E8001F21F0400100E087
:102D100021E040E80012002AF3D1D4F8800078B115
:102D200075498163D4F88000FEF772FA00280AD052
:102D3000D4F88000816B00E02046BDE8F0410847F0
:102D40002046FFF754FFBDE8F0812046FFF74FFF14
:102D5000C4F89050F7E7D4F86CC02027BCF1010FFD
:102D60007ED15FEAC06C7BD55FEAC16C78D510205C
:102D7000186220688068400645D5D4F8801008683D
:102D800040680004000CDED0B4F85C208242DAD93E
:102D9000A4F85E000868006880062CD4216851E819
:102DA000000F20F4807041E80002002AF6D120686C
:102DB000083050E8001F21F0010140E80012002A0D
:102DC000F5D12068083050E8001F21F0400140E8AC
:102DD0000012002AF5D1C4F88C70E566206850E82E
:102DE000001F21F0100140E80012002AF6D1D4F8AB
:102DF0008000FEF7D7F92667B4F85C00B4F85E10DF
:102E0000401A81B230E0B4F85C00B4F85E10401AA9
:102E100081B2B4F85E00002895D0002993D02268D2
:102E200052E8000F20F4907042E80003002BF6D126
:102E30002F4BDB432068083050E8002F1A4040E851
:102E4000002CBCF1000FF5D1C4F88C70E566656705
:102E5000226852E8000F20F0100042E8000300E072
:102E600006E0002BF4D126672046FFF770FE6AE7E4
:102E7000C60209D5560207D54FF4801018622046C5
:102E8000BDE8F041FFF7B2BE03060AD501F08003AA
:102E900002F40002134304D0A16F00297FF44CAF69
:102EA00051E7420611D54A060FD52046026852E87E
:102EB000001F21F0400142E80013002BF6D1C0F8BA
:102EC0008870856700F0E6F83DE7020206D54A0003
:102ED00004D52046BDE8F041FFF787BEC001C6D546
:102EE0000029C4DA2046BDE8F041FFF731BE0000FA
:102EF00001000010200100048941000810B5040001
:102F000003D0D4F8880010B107E0012010BD0020E4
:102F100084F88400204600F027F82420C4F88800B4
:102F20002068016821F001010160A06A10B120460B
:102F300001F070F8204601F0C3FB0128E6D02068BC
:102F4000416821F4904141602068816821F02A01A4
:102F500081602068016841F0010101602046BDE800
:102F6000104001F0BBB8000010B5AEB0044614210B
:102F700027A8FDF70AFA9C216846FDF706FA1B49C7
:102F80002068884230D104200024009011946846C3
:102F9000FEF7D2FC08B1FDF741FC1548816D41F404
:102FA00080218165816D01F480212C91C16C41F0FB
:102FB0000201C164C06C27A900F002002C904FF4FC
:102FC000406027900220CDE9280403202A900720A2
:102FD0002B900848FEF76AFA002211462720FEF7D8
:102FE000FFFB2720FEF7EEFB2EB010BD004800408F
:102FF000001002400004004830B4D0F88C30202B80
:1030000002D0022030BC7047A9B1A2B10023C36630
:103010000A4C0368A3420BD05B681B0208D5046806
:1030200054E8003F43F0806344E80035002DF6D1BA
:1030300030BC01F091BC0120E4E7000000800040BA
:1030400012480178401E2B290CD02D290CD0712953
:103050000CD074290CD07A290CD0792911D0772979
:1030600011D009E0012106E0022104E0032102E081
:10307000042100E005210170012204490448FFF702
:10308000BBBF0621F7E70721F5E70000010000209C
:10309000740100207047FEE770B50C4C01228021BE
:1030A0002046FEF733FB0122150229462046FEF793
:1030B0002DFB002229462046FEF728FB2046BDE8CE
:1030C000704000228021FEF721BB0000001800485C
:1030D00070B50A4C012280212046FEF717FB4FF401
:1030E0008075002229462046FEF710FB294620461F
:1030F000BDE870400122FEF709BB0000001800483F
:1031000010B5064C012280212046FEF7FFFA20462A
:103110000022BDE810408021FEF7F8BA00180048F0
:1031200000EB8100006E00F0F84070478068C0F34B
:10313000C00070478068C0F380007047C06810F41A
:10314000406F01D00020704701207047042303EA3C
:10315000D15310B518444369C1F3045107248C407E
:10316000A3438A401343436110BD00EB8100016E0D
:1031700021F00041114301667047000030B587B06F
:1031800018216846FDF701F9234822490024C0E9C7
:1031900000140425456101218460C0E903410476DF
:1031A00041760321C16180F820408462C46280F8C6
:1031B0003040446380F83840FDF744FE08B1FDF725
:1031C0002DFB164800900620CDE901047F200594D0
:1031D000CDE9030569461048FDF728FB08B1FDF766
:1031E0001DFB0F4800900C20019069460A48FDF72E
:1031F0001DFB08B1FDF712FB0A4800901220019058
:1032000069460548FDF712FB002801D0FDF706FBD3
:1032100007B030BD0000045014000020020030044C
:103220001000C0100002B0250D4808B5816C41F0B7
:1032300004018164816C01F004010091816C41F012
:1032400001018164806C002200F0010000901146B1
:103250000B20FEF7C5FABDE808400B20FEF7B2BA16
:10326000001002402DE9F04F87B014216846FDF7A9
:103270008CF83E4CE06C40F48070E064E06C00F44C
:1032800080700590E06C40F04000E064E06C00F07D
:1032900040000590FEF734FBE06C40F00400E06471
:1032A000E06C00F004000590E06C40F08000E06409
:1032B000E06C00F080000590E06C40F00200E064FB
:1032C000E06C00F002000590E06C40F00100E0646A
:1032D000E06CDFF89C8000F00100059000220C21DA
:1032E0004046FEF713FADFF88C904FF4C0760022C8
:1032F00031464846FEF70AFADFF87CA00022842116
:103300005046FEF703FADFF874B04FF4005700227E
:1033100039465846FEF7FAF90C20009001250024A2
:10332000CDE90154694640460394FEF7BFF81120E9
:103330000096CDE90104694648460394FEF7B6F8C5
:1033400084200090CDE90154694650460394FEF76D
:10335000ADF80220CDE90250CDE900756946584626
:10336000FEF7A4F807B000F00BB800000010024010
:1033700000200048001800480008004800040048E9
:1033800030BCBDE8C08F000010B58EB0002407949B
:10339000089409940A940B940C941C2168460D948B
:1033A000FCF7F3FF1F484FF0804101602321C0E983
:1033B00001144FF47A71C0E9031480218161FFF791
:1033C00067F908B1FDF72AFA4FF48050079007A972
:1033D0001448FFF7ADF908B1FDF720FA1148FFF7DF
:1033E000E3FA08B1FDF71AFA0B940BA90D480D94F6
:1033F000FFF700F908B1FDF711FA602000904FF4D3
:10340000FA70CDE901040022694606480494FFF7EA
:1034100039FA08B1FDF702FA0248FFF7F9F90EB0E0
:1034200010BD0000DC00002010B58EB00024079411
:10343000089409940A940B940C941C2168460D94EA
:10344000FCF7A3FF1F481E4901602321C0E90114B6
:103450004FF47A71C0E9031480218161FFF718F9F4
:1034600008B1FDF7DBF94FF48050079007A9154824
:10347000FFF75EF908B1FDF7D1F91248FFF794FAAA
:1034800008B1FDF7CBF90B940BA90E480D94FFF78B
:10349000B1F808B1FDF7C2F9602000904FF4FA705E
:1034A000CDE901040022694606480494FFF7EAF9D1
:1034B00008B1FDF7B3F90348FFF7AAF90EB010BD44
:1034C0000004004028010020184810B5164901608A
:1034D0004FF4E1314160002181600C22C160C0E9FC
:1034E00004128161C161016241628162FFF706FDE0
:1034F00008B1FDF793F900210C48FFF750FB08B124
:10350000FDF78CF900210948FFF723FB08B1FDF70F
:1035100085F90648FFF7FCFA002803D0BDE8104003
:10352000FDF77CB910BD0000004800407401002088
:10353000FEE7FEE770B506460024002104F1B00066
:1035400000F035F90021084600F031F90021102083
:1035500000F02DF900250121304600F028F96D1CFE
:10356000EDB2802DF7D3641CE4B2082CE5D370BD16
:1035700010B5C820FDF788FF0021AE2000F017F934
:103580000021084600F013F90021102000F00FF987
:103590000021402000F00BF90021B02000F007F9D5
:1035A0000021812000F003F90021FF2000F0FFF846
:1035B0000021A12000F0FBF80021A62000F0F7F880
:1035C0000021A82000F0F3F800213F2000F0EFF8E0
:1035D0000021C82000F0EBF80021D32000F0E7F82C
:1035E0000021084600F0E3F80021D52000F0DFF8C4
:1035F0000021802000F0DBF80021D82000F0D7F86F
:103600000021052000F0D3F80021D92000F0CFF8E8
:103610000021F12000F0CBF80021DA2000F0C7F8FB
:103620000021122000F0C3F80021DB2000F0BFF8D9
:103630000021302000F0BBF800218D2000F0B7F809
:103640000021142000F0B3F80021BDE81040AF20A5
:1036500000F0ADB810B50A460446002102F1B000F2
:1036600000F0A5F8102040EA1410002100F09FF8A7
:1036700004F00F00BDE81040002100F098B80000F1
:103680002DE9F041203A00240D468046D6B27F282D
:1036900003D900208D1C8046EDB2102B294610D096
:1036A000FFF7D8FF164906EB460001EB4005012164
:1036B000285D00F07CF8641CE4B2062CF7D3BDE86A
:1036C000F081FFF7C7FF0F4F04EB06100121385CB4
:1036D00000F06DF8641CE4B2082CF5D36D1CE9B25F
:1036E0004046FFF7B7FF002404EB061038440121E1
:1036F000007A00F05CF8641CE4B2082CF4D3DEE736
:1037000096540008BE5600082DE9F05F0026DDF84B
:1037100028901D4692468B46804634464FEA59070C
:1037200023E0281B401EC1B20A2001F0D7FBBAFBE0
:10373000F0F00A21B0FBF1F201FB120026B9691E7C
:103740008C4201DA38B101263030C2B207FB048066
:10375000C0B24B4604E007FB0480C0B24B462022B7
:103760005946FFF78DFF641CE4B2AC42D9D300F098
:1037700000B830BCBDE8C09F2DE9F041984617461F
:103780000E46044600250DE0434631462046FFF72D
:1037900077FF0834E4B2782C02D90024B61CF6B2C4
:1037A0006D1CEDB27A5D002AEED1BDE8F081C0B2A9
:1037B00009B101F0EAB901F0D1B970472DE9F04142
:1037C000434C05468846E06800268107286806D0F5
:1037D000E16801F0030181420FD170B11AE00128C4
:1037E00004D0022805D0032807D108E02168890702
:1037F00001E021684905002907DB012664E0216812
:10380000890302D421684903F5E7E16821F0030147
:103810000143E160206820F080602060FDF77CFFBC
:10382000074604E0FDF778FFC01B022843D8206854
:103830000001F7D46FF00F00B8F1000F1BD0B8F102
:10384000010F24D0297D4908420502EB4161AA6895
:1038500041EA02216A6800EB0210014320691D4A17
:10386000104001432161206840F080602060FDF736
:1038700053FF074621E0A9682A7B090241EAC26199
:103880006A6800EB021001432069134AE8E7298ABD
:10389000124A490802EB4151AA6841EA02216A68CA
:1038A00000EB0210014320690D4AD9E7FDF734FF10
:1038B000C01B022801D9032606E020680001F5D5C7
:1038C0002069A969084320613046BDE8F081000005
:1038D000001002400F80FFF90F80FF070000E0FF9B
:1038E0000F809FFF2DE9F041434C05468846E06874
:1038F00000268107286806D0E16801F003018142B3
:103900000FD170B11AE0012804D0022805D0032895
:1039100007D108E02168890701E0216849050029ED
:1039200007DB012664E02168890302D4216849038A
:10393000F5E7E16821F003010143E160206820F030
:1039400080502060FDF7E8FE074604E0FDF7E4FE46
:10395000C01B022843D820688000F7D46FF00F0006
:10396000B8F1000F1BD0B8F1010F24D0297D490810
:10397000420502EB4161AA6841EA02216A6800EB54
:103980000210014360691D4A1040014361612068D3
:1039900040F080502060FDF7BFFE074621E0A96897
:1039A0002A7B090241EAC2616A6800EB0210014306
:1039B0006069134AE8E7298A124A490802EB415133
:1039C000AA6841EA02216A6800EB021001436069BB
:1039D0000D4AD9E7FDF7A0FEC01B022801D9032636
:1039E00006E020688000F5D56069A9690843606138
:1039F0003046BDE8F0810000001002400F80FFF962
:103A00000F80FF070000E0FF0F809FFF1748C1688D
:103A100001F0030101291AD0022914D0032914D07E
:103A20000021C268C368C2F30312C3F306234B43E9
:103A3000521CB3FBF2F1C068C0F34160401C40006F
:103A4000B1FBF0F070470A49EBE70A49E9E7016882
:103A5000090704D4D0F89410C1F3032102E00168EF
:103A6000C1F30311044A52F82110DAE700100240B2
:103A70000024F40000127A00E85C0008F8B51A4D42
:103A800006460024A86DC00002D5FDF741FF0DE0F9
:103A9000A86D40F08050A865A86D00F0805000909F
:103AA000FDF736FFA96D21F08051A965B0F5007FC3
:103AB00003D0802E06D3022407E0802E05D9A02E45
:103AC000F9D801E0702E00D101240848016821F0E6
:103AD0000F0121430160006800F00F00A04201D0F7
:103AE0000120F8BD0020F8BD001002400020024077
:103AF0007047FDF717BE10B596B044216846FCF735
:103B000044FC142111A8FCF740FC4FF40070FDF7B1
:103B100099FE08B172B6FEE7102001210090002442
:103B200006916020CDE907400220CDE90A010C9101
:103B30001221CDE90D100F9010906846FEF792FA11
:103B400008B172B6FEE70F2011900320CDE91204F0
:103B50001494012111A81594FEF73CF9002801D016
:103B600072B6FEE716B010BD0248016841F470015C
:103B70000160704788ED00E02DE9F0470268264BB0
:103B8000264D274E274F284C4FF0804A984209D0A7
:103B9000504507D0A84205D0B04203D0B84201D06A
:103BA000A04204D122F0700C4A6842EA0C02DFF80D
:103BB0007CC0DFF87C80DFF87C9098420FD05045C5
:103BC0000DD0A8420BD0B04209D0B84207D0A042D5
:103BD00005D0604503D0404501D0484503D122F4CB
:103BE0004075CA682A434D6922F080022A43026068
:103BF0008A68C2620A688262984207D0A04205D0F1
:103C0000604503D0404501D0484501D109690163B1
:103C100001214161BDE8F087002C01400004004013
:103C200000080040000C004000340140004001400A
:103C3000004401400048014010B501F01F0301217C
:103C4000046A99408C430462016A9A4011430162FC
:103C500010BD10B5846842EA032224F47F440A436D
:103C60002243826010BD826822F070020A4342F053
:103C700007018160704700002DE9F043056A026A80
:103C800022F001020262436882691C4C25F00205A1
:103C900022400C6822F0030214438A68194E2A431A
:103CA000174D194FDFF864C0DFF86490A84207D0C1
:103CB000B04205D0B84203D0604501D0484506D196
:103CC00022F00808CA6842EA080222F00402A84268
:103CD00007D0B04205D0B84203D0604501D0484576
:103CE00005D14D6923F440731D438B692B43436019
:103CF0008461496841630262BDE8F0838FFFFEFF83
:103D0000002C0140003401400040014000440140CB
:103D100000480140F0B5056A026A22F01002026212
:103D200042688369194C1B4E23400C6823F440738E
:103D300043EA042425F020038D6843EA0513144D5B
:103D4000A84201D0B04206D1CF6823F0800343EAF5
:103D5000071323F04003A8420AD0B04208D00E4D0A
:103D6000A84205D00D4DA84202D00D4DA84207D162
:103D70004D6922F4406242EA85028D6942EA850279
:103D800042608461496881630362F0BDFF8FFFFE7A
:103D9000002C01400034014000400140004401403B
:103DA00000480140F0B5056A026A22F4807202629E
:103DB0004368C269194C1B4E22400C6822F0030272
:103DC000144325F400728D6842EA0522144DA8427E
:103DD00001D0B04206D1CF6822F4006242EA072245
:103DE00022F48062A8420AD0B04208D00E4DA84208
:103DF00005D00E4DA84202D00D4DA84207D14D6905
:103E000023F4405343EA05138D6943EA05134360E5
:103E1000C4614968C1630262F0BD00008FFFFEFF0C
:103E2000002C0140003401400040014000440140AA
:103E30000048014030B5046A026A22F480520262EE
:103E40004268C369124D24F400542B400D6823F4DA
:103E5000407343EA05238D6844EA05340D4DA842BA
:103E60000BD00D4DA84208D00C4DA84205D00C4DEA
:103E7000A84202D00B4DA84204D14D6922F48042E1
:103E800042EA85124260C36149680164046230BD40
:103E9000FF8FFFFE002C0140003401400040014034
:103EA000004401400048014030B5056A026A22F42E
:103EB000803202624268436D114C23400C681C43FF
:103EC00025F400330D8943EA05430E4DA8420BD07B
:103ED0000D4DA84208D00D4DA84205D00C4DA8426A
:103EE00002D00C4DA84204D14D6922F4803242EA3E
:103EF00005224260446549688165036230BD000067
:103F00008FFFFEFF002C01400034014000400140C3
:103F1000004401400048014030B5046A026A22F4BE
:103F2000801202624268436D114D24F400142B404C
:103F30000D6843EA05230D8944EA05540D4DA84256
:103F40000BD00D4DA84208D00C4DA84205D00C4D09
:103F5000A84202D00B4DA84204D14D6922F4802220
:103F600042EA8522426043654968C165046230BD0A
:103F7000FF8FFFFE002C0140003401400040014053
:103F8000004401400048014010B5036A046A24F06F
:103F900001040462846924F0F00444EA021423F06A
:103FA0000A020A438461026210BD10B5036A046A02
:103FB00024F010040462846923F0A00324F4704404
:103FC00044EA023243EA01118261016210BD00003D
:103FD00030B5416EB9B1026891689268C1F342612F
:103FE0000B4B520F9C5CE50003F10804A25CB5FB8F
:103FF000F2F2A0F86A205A5C615CD200B2FBF1F1E7
:10400000A0F8681030BD0121A0F86A10F8E70000A0
:10401000C65C000890F82810090706D501684A68B0
:10402000836B22F400421A434A6090F82810C907B3
:1040300006D001684A68C36A22F400321A434A6013
:1040400090F82810890706D501684A68036B22F4A6
:1040500080321A434A6090F82810490706D5016853
:104060004A68436B22F480221A434A6090F8281071
:10407000C90606D501688A68C36B22F480521A43C8
:104080008A6090F82810890606D501688A68036C52
:1040900022F400521A438A6090F82810490611D57C
:1040A00001684A68436C22F480121A434A60416CEA
:1040B000B1F5801F06D101684A68836C22F4C00202
:1040C0001A434A6090F82810090606D501684A6824
:1040D000C06C22F4002202434A6070472DE9F84385
:1040E00000260446C0F89060FDF716FB8046206865
:1040F00000684FF0200500076FF07E4713D5434658
:10410000002229042046009700F0AEFC58B1216837
:1041100051E8000F20F0800041E80002002AF6D1AB
:10412000C4F8885021E020680068400722D5434643
:1041300000224FF480012046009700F095FCC8B1A2
:10414000216851E8000F20F4907041E80002002A35
:10415000F6D12068083050E8001F21F0010140E846
:104160000012002AF5D1C4F88C5084F88460032032
:10417000BDE8F883C4F88850C4F88C5044F86C6FDC
:10418000666026760020F3E710B5806A0021A0F86B
:104190005E10A0F85610FEF72AFD10BD10B502689B
:1041A00052E8001F21F4907142E80013002BF6D171
:1041B0000E4B0268083252E8001F194042E8001412
:1041C000002CF6D1C16E012908D1016851E8002FF9
:1041D00022F0100241E80023002BF6D12021C0F884
:1041E0008C100021C166416710BD0000FEFFFFEF8B
:1041F00010B5B0F86020D0F88C300168222B04D0C4
:10420000088B40F00800088310BD898C836D114035
:104210001980816D891C8165B0F85E10491EA0F877
:104220005E10B0F85E100029EED1016851E8002F51
:1042300022F4907241E80023002BF6D10168083186
:1042400051E8002F22F0010241E80023002BF5D1B4
:104250002021C0F88C10002141670167154B0268CE
:104260009A420BD05268120208D5036853E8002F17
:1042700022F0806243E80024002CF6D1C26E012AAD
:1042800002D0FEF7DDFE10BDC166026852E8001FD5
:1042900021F0100142E80013002BF6D10168CA6931
:1042A000D243D20601D410220A62B0F85C10FEF7A5
:1042B0004EFC10BD008000402DE9F0470446B0F8E8
:1042C00060600068C569D0F800A0D0F80880D4F814
:1042D0008C10222905D0018B41F008010183BDE833
:1042E000F087B4F868704FF0000975E02068808CA2
:1042F000A16D30400880A06D801CA065B4F85E0000
:10430000401EA4F85E002068C569690730D0E9073F
:104310000AD05FEACA5107D501210162D4F89000A2
:1043200040F00100C4F89000A8070BD55FEAC87000
:1043300008D0216802200862D4F8900040F0040000
:10434000C4F8900068070BD55FEAC87008D02168F0
:1043500004200862D4F8900040F00200C4F89000F5
:10436000D4F8900020B12046FEF741FCC4F89090AC
:10437000B4F85E0080BB216851E8000F20F4807023
:1043800041E80002002AF6D1304A2068083050E89F
:10439000001F114040E80013002BF6D12020C4F884
:1043A0008C00C4F874904A46C4F87090284920687C
:1043B00088420BD04068000208D5216851E8000F00
:1043C00020F0806041E80003002BF6D1E06E012868
:1043D00025D02046FEF734FE0FB1A80686D4B4F8E7
:1043E0005E0000283FF47BAFB4F8681081427FF68E
:1043F00076AF2068083050E8001F21F0805140E877
:104400000012002AF5D113486067216851E8000FB7
:1044100040F0200041E80002002AF6D15FE7E266A2
:10442000216851E8000F20F0100041E80002002A46
:10443000F6D12068C169C943C90601D410210162BF
:10444000B4F85C102046FEF782FBC5E7FEFFFFEFE5
:1044500000800040F141000810B5B0F86020D0F8AD
:104460008C300168222B04D0088B40F008000883B0
:1044700010BD898C1140826D1170816D491C816560
:10448000B0F85E10491EA0F85E10B0F85E1000296A
:10449000EED1026852E8001F21F4907142E8001347
:1044A000002BF6D10168083151E8002F22F00102FB
:1044B00041E80023002BF5D12021C0F88C10002109
:1044C00041670167154B02689A420BD0526812028D
:1044D00008D5036853E8002F22F0806243E80024E7
:1044E000002CF6D1C26E012A02D0FEF7A9FD10BD44
:1044F000C166026852E8001F21F0100142E8001373
:10450000002BF6D10168CA69D243D20601D4102229
:104510000A62B0F85C10FEF71AFB10BD0080004084
:104520002DE9F0470446B0F860600068C569D0F82E
:1045300000A0D0F80880D4F88C10222905D0018B77
:1045400041F008010183BDE8F087B4F868704FF0CE
:10455000000975E02068808CA16D30400870A06D66
:10456000401CA065B4F85E00401EA4F85E00206800
:10457000C569690730D0E9070AD05FEACA5107D593
:1045800001210162D4F8900040F00100C4F89000CD
:10459000A8070BD55FEAC87008D02168022008621E
:1045A000D4F8900040F00400C4F8900068070BD5E0
:1045B0005FEAC87008D0216804200862D4F890002F
:1045C00040F00200C4F89000D4F8900020B12046DA
:1045D000FEF70DFBC4F89090B4F85E0080BB216834
:1045E00051E8000F20F4807041E80002002AF6D163
:1045F000304A2068083050E8001F114040E800139E
:10460000002BF6D12020C4F88C00C4F874904A46E0
:10461000C4F870902849206888420BD04068000296
:1046200008D5216851E8000F20F0806041E80003C0
:10463000002BF6D1E06E012825D02046FEF700FDC4
:104640000FB1A80686D4B4F85E0000283FF47BAF13
:10465000B4F8681081427FF676AF2068083050E8E1
:10466000001F21F0805140E80012002AF5D11348C4
:104670006067216851E8000F40F0200041E8000227
:10468000002AF6D15FE7E266216851E8000F20F0CA
:10469000100041E80002002AF6D12068C169C94330
:1046A000C90601D410210162B4F85C102046FEF75F
:1046B0004EFAC5E7FEFFFFEF0080004059440008B6
:1046C0002DE9F0410446016880682269E3691043DE
:1046D000626900251A431043DFF84CC20A68934B05
:1046E0001A4002430A6020684168E26821F44051A0
:1046F000114341602168A069614501D0226A1043DD
:104700008A688B4B1A4002438A602068C16A626AD9
:1047100021F00F011143C1628649236886488B420C
:104720000DD1D0F8880010F0030006D0012867D022
:10473000022854D0032851D164E001204FE07F4982
:104740008B420BD1D0F8880010F00C0047D0042821
:1047500045D0082852D00C2840D153E078498B42EC
:104760000BD1D0F8880010F0300038D0102847D096
:10477000202843D0302831D144E072498B420BD1FC
:10478000D0F8880010F0C00029D0402838D0802808
:1047900034D0C02822D135E06B498B420ED1D0F8FD
:1047A000880010F440701AD0B0F5807F28D0B0F5A2
:1047B000007F23D0B0F5407F10D123E063450DD1B9
:1047C000D0F8880010F4406009D0B0F5806F17D0A1
:1047D000B0F5006F12D0B0F5406F13D010205B4AD7
:1047E0005B4F00264FF40041634539D160B1022888
:1047F0000DD004280DD0082831D10EE00220EEE7BC
:104800000420ECE70820EAE7FDF7B6FB03E01146D9
:1048100003E0FDF7D5FB01007BD0606A37F810207C
:104820006768B1FBF2F007EB4703834269D8B0EB4E
:10483000073F66D8002308461946FBF72FFD0902FB
:1048400041EA106102027808101871413A460023CB
:10485000FBF724FD3F4AA0F54071914257D950E043
:10486000E3694FF6EF788B422BD1092849D2DFE874
:1048700000F005080D48254848480E00FDF77CFB70
:1048800001E0FDF78BFB010001D142E01146606AB7
:1048900037F81000B1FBF0F04100606801EB500107
:1048A000B1FBF0F1A1F1100040452AD84FF6F072AB
:1048B00001EA0200C1F34201084328E0FDF780FB52
:1048C000E1E709281DD2DFE800F005080D1C1E1CD9
:1048D0001C1C0E00FDF750FB01E0FDF75FFB010023
:1048E00001D116E01146606A37F81000B1FBF0F113
:1048F000606801EB5001B1FBF0F0A0F110014145FF
:1049000004D9012505E0FDF75BFBE8E780B22168EB
:10491000C8600120A4F86A0024F8680F2846E66001
:104920002661BDE8F081000000800040F369FFCF00
:10493000FFF4FF1100380140001002400044004025
:1049400000480040004C0040005000400024F400AB
:10495000AE5C0008FFFC0F0070B58165A0F85C201C
:10496000A0F85E200023436781684FF48056FF243F
:10497000B14204D10169F9B940F2FF1122E07F256B
:10498000C1B1B1F1805F1AD0A0F86030C0F89030AA
:104990002221C0F88C100168083151E8003F43F033
:1049A000010341E80034002CF5D1416EB1F1005F04
:1049B0000ED031E0016941B9A0F86040E6E7016935
:1049C00019B13F21A0F86010E0E7A0F86050DDE7E2
:1049D000B0F8681091421FD88168B14201D10169D5
:1049E000B9B11D494167016941B1026852E8001F30
:1049F00041F4807142E80013002BF6D101680831C0
:104A000051E8002F42F0805241E80023002BF5D1FD
:104A100020E012494167F1E78168B14201D10169A3
:104A200069B10F494167016959B1026852E8001F35
:104A300041F4907142E80013002BF6D10AE00949D5
:104A40004167026852E8001F41F0200142E800136C
:104A5000002BF6D1002070BD21450008B9420008A6
:104A600059440008F14100082DE9F04799461746DE
:104A70000E4604464FF00008089D2FE0681C2DD01C
:104A8000FCF74AFEA0EB0900A84214D89DB12068AB
:104A90000168490722D5C169C94309070DD4082512
:104AA00005622046FFF77AFBC4F8905084F88480B2
:104AB0000120BDE8F0870320FBE7C069C043000583
:104AC0000CD421684FF4006008622046FFF766FBB3
:104AD0002020C4F8900084F88480ECE72068C06946
:104AE00036EA000004D00020B842C7D00020E0E73A
:104AF0000120F9E70148FEF77BB8000074010020AF
:104B0000FEE700002DE9F041134E0446002280210B
:104B10003046FCF7FBFD00254FF4807704F0800061
:104B2000802816D0002239463046FCF7EFFD60069B
:104B3000040E012280213046FCF7E8FD002280218E
:104B40003046FCF7E3FD6D1CEDB2082DE6D3BDE861
:104B5000F0810122E7E700000018004810B5044684
:104B6000FEF79AFA7820FFF7CDFFFEF7C9FA00208A
:104B7000FFF7C8FFFEF7C4FA2046FFF7C3FFFEF7B2
:104B8000BFFABDE81040FEF7A3BA10B50446FEF721
:104B900083FA7820FFF7B6FFFEF7B2FA4020FFF75E
:104BA000B1FFFEF7ADFA2046FFF7ACFFFEF7A8FA1B
:104BB000BDE81040FEF78CBA0907090E002804DB97
:104BC00000F1E02080F80014704700F00F0000F1C1
:104BD000E02080F8141D7047FCB001208DF8E4013E
:104BE0008DF8E801FCF7A6FDFEF785FFFEF73AFB1E
:104BF000FEF71AFBFEF7C8FBFEF716FCFEF764FC97
:104C0000FEF7BCFA00219748FDF700FFFEF7B0FC65
:104C10000020FEF78FFC0024012293499348FEF701
:104C2000EBF9FBF74FFD782201A99148FCF760FAF8
:104C3000DFF834A20DF10409A346AAF1010A1420F9
:104C4000FCF722FC00200346054602464FEA090114
:104C500051F82060401CC0B2334451F82060401C21
:104C6000C0B2354451F82060401CC0B232447828AC
:104C7000EED32821B3FBF1F0B5FBF1F5B2FBF1F671
:104C800000F009FA9FED7B1B53EC112B00F016FA94
:104C90009FED7A1B53EC112B00F028F900F0CEF9B0
:104CA00000F0FF08284600F0F6F99FED761B53EC64
:104CB000112B00F003FA9FED751B53EC112B00F044
:104CC00015F900F0BBF9C7B2304600F0E4F99FEDEA
:104CD000711B53EC112B00F0F1F99FED701B53EC9D
:104CE000112B00F003F900F0A9F9C6B29AF8000000
:104CF0005546012804D002280AD0032810D023E00A
:104D00004FF47A70844201DA643406E0044604E029
:104D1000002C01DD643C00E000248AF800B045E08E
:104D2000002204215F48FCF7F1FC012280215D484C
:104D3000FCF7ECFC002204215B48FCF7E7FC0122B5
:104D400008215948FCF7E2FC2878042809D1002200
:104D500084215448FCF7DAFC00220C215248FCF76D
:104D6000D5FC287805280ED1002284214D48FCF777
:104D7000CDFC002204214C48FCF7C8FC012208218C
:104D80004948FCF7C3FC287806280FD100220C21E3
:104D90004548FCF7BBFC434D002204212846FCF7A4
:104DA000B5FC012280212846FCF7B0FC2D480068A4
:104DB00044633E480068446379A97AA8FBF759FC2C
:104DC00010233BA202210020FEF7D6FC10233AA2BA
:104DD00004210020FEF7D0FC1025042300959DF847
:104DE000E82102213720FEF78FFC042300959DF86F
:104DF000E42119463720FEF787FC0021102330A25A
:104E00000846FEF7B9FC0423224600213220009513
:104E1000FEF77AFC10232CA206214B20FEF7ACFCF7
:104E20000323424606215A200095FEF76DFC10230D
:104E300026A206210020FEF79FFC03233A4600210C
:104E400032200095FEF760FC102322A2002155209D
:104E5000FEF792FC0323324600215A200095FEF70C
:104E600053FCECE6DC00002001000020740100206F
:104E70001400002087A757CA320417C08195438BBE
:104E80006CA7304062105839B4C81BC0CDCCCCCC14
:104E9000CC4C5040613255302AA993BFE561A1D670
:104EA000346F10400008004800200048280100200E
:104EB00057454E44553A00005348494E44553A0030
:104EC00053706565643A000050483A004C5A3A31D4
:104ED0002E33000048443A372500000002460120E6
:104EE00000E05043491EC9B2FBD2704710B591EAA9
:104EF000030F48BF83F0004300F1E681841A71EB91
:104F0000030C05D2121943EB0C03001B61EB0C01DF
:104F1000DFF824E14FEA1154A4EB135C1EEA430FBF
:104F200018BF9EEA445F73D023EA0E03DCF1200E23
:104F300021EA045143F4801332D322FA0CFE10EB21
:104F40000E0023FA0CFE41EB0E01CCF1200E03FA09
:104F50000EFE10EB0E0051F10001B1F5801FCCF1F7
:104F6000200E32D201EB045112FA0EF2BDE81040CD
:104F700058BF7047401C38BF5FEA420218BF7047F5
:104F8000002814BF20F0010041F100014FEA410365
:104F900013F5001F38BF7047A1F1C04100F086B97A
:104FA000012A43EB0302ACF1200CDCF11F0E32BFEF
:104FB0004FF0000E23FA0CF310EB030041EB045109
:104FC000B4EB115FD0D0A1EB045101F58011490879
:104FD0005FEA300001EB04510ED350F1000038BFFE
:104FE00012FA0EFE08D1BDE81040C9E7401C38BFD8
:104FF0005FEA4202CAD1C3E7BDE810404FEA41036D
:1050000013F5001F38BF7047A1F1C04100F04EB941
:105010009EEA445F08D011EA5E0FBDE8104004BF6D
:1050200001F0004100207047BDE8104070B500F06D
:10503000EFF800BF64FBBE3E0000E0FF4FEA1153F3
:10504000A3F58063D3F11E03A8BFD3F1200C08DBC6
:105050004FF0004242EAC12252EA505232FA03F0C3
:10506000704709420BD4102BC4BF0020704703F5D2
:10507000787CBCF1FF3F05D04FF0FF3070474FF018
:105080000000704770B500F0C3F800BF499224805B
:1050900000207047F0E7B0FA80F310FA03F10AD06D
:1050A000C3F11D0303F580634FEA41504FEA0352F9
:1050B00002EBD12170474FF000007047DFF848C184
:1050C00070B51CEA111E1EBF1CEA13159EEA0C0FD8
:1050D00095EA0C0F00F06F8081EA030423EA4C1379
:1050E0004EEAD47E21EA4C1141F4801143F480133E
:1050F000AE44A1FB024CA0FB0365AEF17F7E3619E6
:1051000055EB0C05A1FB034C4CF10003A0FB021C6A
:1051100016EB0C06654153F10003094218BF46F037
:10512000010613F4007F0BD14FEA03314FEA05303B
:10513000340341EA155140EA16506FF003020AE0C9
:105140004FEAC3214FEAC520F40241EA555140EA33
:1051500056506FF0020202EB2E4201EB025585EA37
:10516000CE710AD05FEA440C18BF24F0004450F11D
:10517000000041F1000120EAD47040F2FE7C62455B
:1051800000D270BDA84214BF4FF080444FF040449D
:10519000002E08BF0024BEF1806FA8BFA1F1C0415E
:1051A000BDE8704080F282804FF0000001F1C04104
:1051B00001F0004170479EEA0C0F0CEA131518BF6E
:1051C00095EA0C0F06D04FF0000081EA030E0EF0B6
:1051D000004170BD00F01CF88900013E00F007B8E6
:1051E00000F009B84FEA430C5FEA5C5C08D081EA42
:1051F000030100F05BB84FEA410C5FEA5C5CF6D15A
:105200004FF00000014970470000FF070000F87FE1
:105210000EF1020E2EF0030E5EF8046B364205D43A
:10522000012A43EB030515F5001F12D8012841EBB5
:10523000010C1CF5001F0CD80ED14FEAD17C15F5DE
:10524000001F0CEB4C0C0CF1020C08BF4CEBD37C98
:1052500004E04FF0080C01E04FEAD37C0CEB4C0566
:1052600026FA05F606F00706B6F1040C06D20EEB98
:10527000860CBDE870404CF0010C6047DFE80CF094
:10528000090B02024FF000414FF00000A1F5002190
:1052900070BD19461046012851EB010418BFD4F522
:1052A000001484BF002001F0004170BD0808A0F583
:1052B00000114FEA3101704710B591EA030F48BF62
:1052C00083F000433FF51AAE841A71EB030C07D24A
:1052D00012198CF0004C43EB0C03001B61EB0C012A
:1052E000DFF8A4E14FEA1154A4EB135C1EEA430F6C
:1052F00018BF9EEA445F00F0B08023EA6E0352427A
:1053000021EA0451C3EB6E0338BF5B1EDCF1200EB3
:1053100025D322FA0CFE10EB0E0043FA0CFE41EBF3
:105320000E01CCF1200E03FA0EFE10EB0E0051F12F
:105330000001CCF1200E29D412FA0EF201EB045137
:10534000BDE8104058BF7047401C1CBFB2F1004F71
:10535000704700280CBF491C20F00100704712EB79
:10536000020E43EB030218BF4FF0010E4EEA420259
:10537000ACF1200CDCF11E0E54D943FA0CFE10EBFC
:105380000E0051F1FF31CCF11E0ED5D50EF1010EFC
:1053900012FA0EFE404141EB010101EB445C5FEA71
:1053A0005C5C10D910EBDE7001EB045138BFBEF12C
:1053B000004FBDE8104018BF704700280CBF491CC3
:1053C00020F00100704730D24FEAD42C11F50011C3
:1053D00024F400641BD0B1FA81F20B3AA41AA41E83
:1053E000D2F12003914030FA03F31943904001EBCE
:1053F000CC71002C01EB0451BDE81040A8BF7047F0
:1054000001F1C0414FF0000001F000417047B0FAD7
:1054100080F310FA03F100D110BDE41A173C4805DF
:10542000C90AE4E701EB045110BD491001EB045136
:10543000BDE810404FEA300002E04FF00001704735
:105440004A0008BF0042F8D0B2F5001F28BF7047DD
:1054500001F000414FF0000070479EEA445F07D022
:1054600011EA5E0FBDE8104004BF00210020704724
:10547000BDE8104070B5FFF7CBFE00BF40DFF63E41
:1054800083F00041104670470000E0FF4FF040708D
:10549000E1EE100A70470000000000000000002F3D
:1054A000000000000700070000147F147F14002490
:1054B0002A7F2A12006264081323003649552250BD
:1054C00000000503000000001C22410000004122F2
:1054D0001C000014083E08140008083E08080000DC
:1054E00000A06000000808080808000060600000D4
:1054F000002010080402003E5149453E0000427F52
:105500004000004261514946002141454B3100189D
:1055100014127F10002745454539003C4A4949305F
:105520000001710905030036494949360006494919
:10553000291E000036360000000056360000000824
:105540001422410000141414141400004122140801
:1055500000020151090600324959513E007C1211E6
:10556000127C007F49494936003E41414122007F7B
:105570004141221C007F49494941007F0909090135
:10558000003E4149497A007F0808087F0000417FBA
:105590004100002040413F01007F08142241007F6C
:1055A00040404040007F020C027F007F0408107FD3
:1055B000003E4141413E007F09090906003E41513C
:1055C000215E007F091929460046494949310001F9
:1055D000017F0101003F4040403F001F2040201F4D
:1055E000003F4038403F0063140814630007087010
:1055F000080700615149454300007F4141000055C3
:105600002A552A55000041417F000004020102048E
:10561000004040404040000001020400002054547B
:105620005478007F484444380038444444200038CB
:105630004444487F00385454541800087E0901023D
:105640000018A4A4A47C007F080404780000447D12
:105650004000004080847D00007F1028440000004E
:10566000417F4000007C04180478007C0804047822
:1056700000384444443800FC24242418001824240E
:1056800018FC007C0804040800485454542000040A
:105690003F444020003C4040207C001C2040201C17
:1056A000003C4030403C004428102844001CA0A08E
:1056B000A07C004464544C441414141414140000CA
:1056C00000000000000000000000000000000000DA
:1056D00000F800000000000000333000000000105F
:1056E0000C06100C0600000000000000000040C086
:1056F0007840C0784000043F04043F040400007078
:1057000088FC08300000001820FF211E0000F0086F
:10571000F000E018000000211C031E211E0000F014
:105720000888700000001E2123241927211010165C
:105730000E0000000000000000000000000000005B
:1057400000E01804020000000007182040000002DA
:105750000418E0000000004020180700000040404E
:1057600080F0804040000202010F010202000000B0
:1057700000F0000000000101011F01010100000014
:1057800000000000000080B0700000000000000079
:105790000000000000000001010101010101000002
:1057A0000000000000000030300000000000000099
:1057B000000080601804006018060100000000E08E
:1057C00010080810E000000F102020100F0000103B
:1057D00010F8000000000020203F20200000007092
:1057E000080808887000003028242221300000308A
:1057F0000888884830000018202020110E00000082
:10580000C02010F8000000070424243F240000F802
:105810000888880808000019212020110E0000E0E7
:10582000108888180000000F112020110E00003889
:105830000808C83808000000003F000000000070A1
:10584000880808887000001C222121221C0000E02A
:1058500010080810E0000000312222110F000000A3
:1058600000C0C00000000000003030000000000058
:1058700000800000000000008060000000000000C8
:105880008040201008000001020408102000404061
:1058900040404040400004040404040404000008A4
:1058A0001020408000000020100804020100007059
:1058B00048080808F0000000003036010000C03041
:1058C000C828E810E0000718272423140B00000064
:1058D000C038E0000000203C23020227382008F8EE
:1058E000888888700000203F202020110E00C030E2
:1058F000080808083800071820202010080008F8B9
:1059000008080810E000203F202020100F0008F8B1
:105910008888E8081000203F20202320180008F87D
:105920008888E8081000203F200003000000C030F5
:1059300008080838000007182020221E020008F876
:1059400008000008F808203F210101213F2000083D
:1059500008F8080800000020203F20200000000078
:105960000808F8080800C08080807F00000008F860
:1059700088C028180800203F20012638200008F899
:10598000080000000000203F20202020300008F800
:10599000F800F8F80800203F003F003F200008F81A
:1059A00030C00008F808203F200007183F00E01032
:1059B00008080810E0000F10202020100F0008F841
:1059C00008080808F000203F210101010000E01054
:1059D00008080810E0000F18242438504F0008F879
:1059E000888888887000203F2000030C30200070D9
:1059F0008808080838000038202121221C001808D7
:105A000008F8080818000000203F2000000008F8EF
:105A100008000008F808001F202020201F00087838
:105A2000880000C83808000007380E010000F80898
:105A300000F80008F800033C0700073C03000818C2
:105A400068808068180820302C03032C3020083828
:105A5000C800C83808000000203F200000001008DF
:105A60000808C83808002038262120201800000027
:105A700000FE020202000000007F40404000000CD7
:105A800030C000000000000000010638C000000225
:105A90000202FE000000004040407F0000000000C5
:105AA00004020202040000000000000000000000E8
:105AB00000000000000080808080808080800002E4
:105AC00002040000000000000000000000000000D0
:105AD0008080808000000019242222223F2008F8C4
